{
  "contractName": "ProductRegistry",
  "abi": [
    {
      "inputs": [],
      "stateMutability": "payable",
      "type": "constructor",
      "payable": true
    },
    {
      "anonymous": false,
      "inputs": [
        {
          "indexed": false,
          "internalType": "uint256",
          "name": "orderId",
          "type": "uint256"
        }
      ],
      "name": "FundsReleased",
      "type": "event"
    },
    {
      "anonymous": false,
      "inputs": [
        {
          "indexed": false,
          "internalType": "uint256",
          "name": "orderId",
          "type": "uint256"
        }
      ],
      "name": "FundsReturned",
      "type": "event"
    },
    {
      "anonymous": false,
      "inputs": [
        {
          "indexed": false,
          "internalType": "uint256",
          "name": "id",
          "type": "uint256"
        },
        {
          "indexed": false,
          "internalType": "uint256",
          "name": "productId",
          "type": "uint256"
        },
        {
          "indexed": true,
          "internalType": "address",
          "name": "buyer",
          "type": "address"
        }
      ],
      "name": "OrderCreated",
      "type": "event"
    },
    {
      "anonymous": false,
      "inputs": [
        {
          "indexed": false,
          "internalType": "uint256",
          "name": "id",
          "type": "uint256"
        },
        {
          "indexed": false,
          "internalType": "string",
          "name": "name",
          "type": "string"
        },
        {
          "indexed": false,
          "internalType": "string",
          "name": "photo",
          "type": "string"
        },
        {
          "indexed": false,
          "internalType": "string",
          "name": "description",
          "type": "string"
        },
        {
          "indexed": false,
          "internalType": "uint256",
          "name": "price",
          "type": "uint256"
        },
        {
          "indexed": true,
          "internalType": "address",
          "name": "seller",
          "type": "address"
        }
      ],
      "name": "ProductCreated",
      "type": "event"
    },
    {
      "anonymous": false,
      "inputs": [
        {
          "indexed": false,
          "internalType": "uint256",
          "name": "id",
          "type": "uint256"
        },
        {
          "indexed": true,
          "internalType": "address",
          "name": "seller",
          "type": "address"
        }
      ],
      "name": "ProductDeleted",
      "type": "event"
    },
    {
      "anonymous": false,
      "inputs": [
        {
          "indexed": false,
          "internalType": "uint256",
          "name": "id",
          "type": "uint256"
        },
        {
          "indexed": true,
          "internalType": "address",
          "name": "buyer",
          "type": "address"
        }
      ],
      "name": "ProductReserved",
      "type": "event"
    },
    {
      "anonymous": false,
      "inputs": [
        {
          "indexed": false,
          "internalType": "uint256",
          "name": "id",
          "type": "uint256"
        },
        {
          "indexed": true,
          "internalType": "address",
          "name": "buyer",
          "type": "address"
        }
      ],
      "name": "ProductSold",
      "type": "event"
    },
    {
      "inputs": [],
      "name": "escrow",
      "outputs": [
        {
          "internalType": "address payable",
          "name": "",
          "type": "address"
        }
      ],
      "stateMutability": "view",
      "type": "function",
      "constant": true
    },
    {
      "inputs": [],
      "name": "orderCount",
      "outputs": [
        {
          "internalType": "uint256",
          "name": "",
          "type": "uint256"
        }
      ],
      "stateMutability": "view",
      "type": "function",
      "constant": true
    },
    {
      "inputs": [
        {
          "internalType": "uint256",
          "name": "",
          "type": "uint256"
        }
      ],
      "name": "orders",
      "outputs": [
        {
          "internalType": "uint256",
          "name": "id",
          "type": "uint256"
        },
        {
          "internalType": "uint256",
          "name": "productId",
          "type": "uint256"
        },
        {
          "internalType": "address",
          "name": "buyer",
          "type": "address"
        },
        {
          "internalType": "uint256",
          "name": "amount",
          "type": "uint256"
        },
        {
          "internalType": "uint256",
          "name": "timestamp",
          "type": "uint256"
        },
        {
          "internalType": "bool",
          "name": "isSend",
          "type": "bool"
        },
        {
          "internalType": "bool",
          "name": "isReleased",
          "type": "bool"
        },
        {
          "internalType": "bool",
          "name": "isPayed",
          "type": "bool"
        },
        {
          "internalType": "bool",
          "name": "isCanceled",
          "type": "bool"
        },
        {
          "internalType": "string",
          "name": "shippingInfo",
          "type": "string"
        }
      ],
      "stateMutability": "view",
      "type": "function",
      "constant": true
    },
    {
      "inputs": [],
      "name": "productCount",
      "outputs": [
        {
          "internalType": "uint256",
          "name": "",
          "type": "uint256"
        }
      ],
      "stateMutability": "view",
      "type": "function",
      "constant": true
    },
    {
      "inputs": [
        {
          "internalType": "uint256",
          "name": "",
          "type": "uint256"
        }
      ],
      "name": "products",
      "outputs": [
        {
          "internalType": "uint256",
          "name": "id",
          "type": "uint256"
        },
        {
          "internalType": "string",
          "name": "name",
          "type": "string"
        },
        {
          "internalType": "string",
          "name": "photo",
          "type": "string"
        },
        {
          "internalType": "string",
          "name": "description",
          "type": "string"
        },
        {
          "internalType": "uint256",
          "name": "price",
          "type": "uint256"
        },
        {
          "internalType": "address",
          "name": "seller",
          "type": "address"
        },
        {
          "internalType": "bool",
          "name": "isDeleted",
          "type": "bool"
        },
        {
          "internalType": "bool",
          "name": "isReserved",
          "type": "bool"
        },
        {
          "internalType": "bool",
          "name": "isSold",
          "type": "bool"
        },
        {
          "internalType": "address",
          "name": "buyer",
          "type": "address"
        }
      ],
      "stateMutability": "view",
      "type": "function",
      "constant": true
    },
    {
      "inputs": [
        {
          "internalType": "string",
          "name": "_name",
          "type": "string"
        },
        {
          "internalType": "string",
          "name": "_photo",
          "type": "string"
        },
        {
          "internalType": "string",
          "name": "_description",
          "type": "string"
        },
        {
          "internalType": "uint256",
          "name": "_price",
          "type": "uint256"
        },
        {
          "internalType": "address",
          "name": "_sellerAddress",
          "type": "address"
        }
      ],
      "name": "createProduct",
      "outputs": [],
      "stateMutability": "nonpayable",
      "type": "function"
    },
    {
      "inputs": [
        {
          "internalType": "uint256",
          "name": "_id",
          "type": "uint256"
        },
        {
          "internalType": "address",
          "name": "_sellerAddress",
          "type": "address"
        }
      ],
      "name": "deleteProduct",
      "outputs": [],
      "stateMutability": "nonpayable",
      "type": "function"
    },
    {
      "inputs": [
        {
          "internalType": "uint256",
          "name": "_id",
          "type": "uint256"
        },
        {
          "internalType": "address",
          "name": "_buyer",
          "type": "address"
        },
        {
          "internalType": "string",
          "name": "_shippingInfo",
          "type": "string"
        },
        {
          "internalType": "uint256",
          "name": "_amountWei",
          "type": "uint256"
        }
      ],
      "name": "reserveProduct",
      "outputs": [],
      "stateMutability": "payable",
      "type": "function",
      "payable": true
    },
    {
      "inputs": [
        {
          "internalType": "uint256",
          "name": "_orderId",
          "type": "uint256"
        },
        {
          "internalType": "address",
          "name": "_sellerAddress",
          "type": "address"
        }
      ],
      "name": "confirmSend",
      "outputs": [],
      "stateMutability": "nonpayable",
      "type": "function"
    },
    {
      "inputs": [
        {
          "internalType": "uint256",
          "name": "_orderId",
          "type": "uint256"
        },
        {
          "internalType": "address",
          "name": "_buyerAddress",
          "type": "address"
        },
        {
          "internalType": "uint256",
          "name": "_amountWei",
          "type": "uint256"
        },
        {
          "internalType": "address",
          "name": "_sellerAddress",
          "type": "address"
        }
      ],
      "name": "confirmReceived",
      "outputs": [],
      "stateMutability": "nonpayable",
      "type": "function"
    },
    {
      "inputs": [
        {
          "internalType": "uint256",
          "name": "_orderId",
          "type": "uint256"
        },
        {
          "internalType": "address",
          "name": "_buyerAddress",
          "type": "address"
        },
        {
          "internalType": "uint256",
          "name": "_amountWei",
          "type": "uint256"
        }
      ],
      "name": "cancelReservation",
      "outputs": [],
      "stateMutability": "nonpayable",
      "type": "function"
    },
    {
      "inputs": [
        {
          "internalType": "uint256",
          "name": "_id",
          "type": "uint256"
        }
      ],
      "name": "getProduct",
      "outputs": [
        {
          "components": [
            {
              "internalType": "uint256",
              "name": "id",
              "type": "uint256"
            },
            {
              "internalType": "string",
              "name": "name",
              "type": "string"
            },
            {
              "internalType": "string",
              "name": "photo",
              "type": "string"
            },
            {
              "internalType": "string",
              "name": "description",
              "type": "string"
            },
            {
              "internalType": "uint256",
              "name": "price",
              "type": "uint256"
            },
            {
              "internalType": "address",
              "name": "seller",
              "type": "address"
            },
            {
              "internalType": "bool",
              "name": "isDeleted",
              "type": "bool"
            },
            {
              "internalType": "bool",
              "name": "isReserved",
              "type": "bool"
            },
            {
              "internalType": "bool",
              "name": "isSold",
              "type": "bool"
            },
            {
              "internalType": "address",
              "name": "buyer",
              "type": "address"
            }
          ],
          "internalType": "struct ProductRegistry.Product",
          "name": "",
          "type": "tuple"
        }
      ],
      "stateMutability": "view",
      "type": "function",
      "constant": true
    },
    {
      "inputs": [],
      "name": "getProducts",
      "outputs": [
        {
          "components": [
            {
              "internalType": "uint256",
              "name": "id",
              "type": "uint256"
            },
            {
              "internalType": "string",
              "name": "name",
              "type": "string"
            },
            {
              "internalType": "string",
              "name": "photo",
              "type": "string"
            },
            {
              "internalType": "string",
              "name": "description",
              "type": "string"
            },
            {
              "internalType": "uint256",
              "name": "price",
              "type": "uint256"
            },
            {
              "internalType": "address",
              "name": "seller",
              "type": "address"
            },
            {
              "internalType": "bool",
              "name": "isDeleted",
              "type": "bool"
            },
            {
              "internalType": "bool",
              "name": "isReserved",
              "type": "bool"
            },
            {
              "internalType": "bool",
              "name": "isSold",
              "type": "bool"
            },
            {
              "internalType": "address",
              "name": "buyer",
              "type": "address"
            }
          ],
          "internalType": "struct ProductRegistry.Product[]",
          "name": "",
          "type": "tuple[]"
        }
      ],
      "stateMutability": "view",
      "type": "function",
      "constant": true
    },
    {
      "inputs": [
        {
          "internalType": "uint256",
          "name": "_id",
          "type": "uint256"
        }
      ],
      "name": "getOrder",
      "outputs": [
        {
          "components": [
            {
              "internalType": "uint256",
              "name": "id",
              "type": "uint256"
            },
            {
              "internalType": "uint256",
              "name": "productId",
              "type": "uint256"
            },
            {
              "internalType": "address",
              "name": "buyer",
              "type": "address"
            },
            {
              "internalType": "uint256",
              "name": "amount",
              "type": "uint256"
            },
            {
              "internalType": "uint256",
              "name": "timestamp",
              "type": "uint256"
            },
            {
              "internalType": "bool",
              "name": "isSend",
              "type": "bool"
            },
            {
              "internalType": "bool",
              "name": "isReleased",
              "type": "bool"
            },
            {
              "internalType": "bool",
              "name": "isPayed",
              "type": "bool"
            },
            {
              "internalType": "bool",
              "name": "isCanceled",
              "type": "bool"
            },
            {
              "internalType": "string",
              "name": "shippingInfo",
              "type": "string"
            }
          ],
          "internalType": "struct ProductRegistry.Order",
          "name": "",
          "type": "tuple"
        }
      ],
      "stateMutability": "view",
      "type": "function",
      "constant": true
    },
    {
      "inputs": [],
      "name": "getOrders",
      "outputs": [
        {
          "components": [
            {
              "internalType": "uint256",
              "name": "id",
              "type": "uint256"
            },
            {
              "internalType": "uint256",
              "name": "productId",
              "type": "uint256"
            },
            {
              "internalType": "address",
              "name": "buyer",
              "type": "address"
            },
            {
              "internalType": "uint256",
              "name": "amount",
              "type": "uint256"
            },
            {
              "internalType": "uint256",
              "name": "timestamp",
              "type": "uint256"
            },
            {
              "internalType": "bool",
              "name": "isSend",
              "type": "bool"
            },
            {
              "internalType": "bool",
              "name": "isReleased",
              "type": "bool"
            },
            {
              "internalType": "bool",
              "name": "isPayed",
              "type": "bool"
            },
            {
              "internalType": "bool",
              "name": "isCanceled",
              "type": "bool"
            },
            {
              "internalType": "string",
              "name": "shippingInfo",
              "type": "string"
            }
          ],
          "internalType": "struct ProductRegistry.Order[]",
          "name": "",
          "type": "tuple[]"
        }
      ],
      "stateMutability": "view",
      "type": "function",
      "constant": true
    }
  ],
  "bytecode": "0x608060405233600460006101000a81548173ffffffffffffffffffffffffffffffffffffffff021916908373ffffffffffffffffffffffffffffffffffffffff160217905550614052806100546000396000f3fe6080604052600436106100e85760003560e01c8063b9db15b41161008a578063e0f6ef8711610059578063e0f6ef8714610318578063e2fdcc1714610343578063f233b84d1461036e578063fca511f114610397576100e8565b8063b9db15b41461024a578063c29b2f2014610287578063c308fa29146102b2578063d09ef241146102db576100e8565b80637acc0b20116100c65780637acc0b201461016c57806389f9cb05146101b2578063a85c38ef146101db578063ad62640314610221576100e8565b80632453ffa8146100ed5780632e2dc43e14610118578063764a527714610143575b600080fd5b3480156100f957600080fd5b506101026103b3565b60405161010f91906126d9565b60405180910390f35b34801561012457600080fd5b5061012d6103b9565b60405161013a919061298b565b60405180910390f35b34801561014f57600080fd5b5061016a60048036038101906101659190612a19565b610609565b005b34801561017857600080fd5b50610193600480360381019061018e9190612a59565b610773565b6040516101a99a99989796959493929190612aee565b60405180910390f35b3480156101be57600080fd5b506101d960048036038101906101d49190612b9f565b6109c6565b005b3480156101e757600080fd5b5061020260048036038101906101fd9190612a59565b610d28565b6040516102189a99989796959493929190612c06565b60405180910390f35b34801561022d57600080fd5b5061024860048036038101906102439190612dde565b610e58565b005b34801561025657600080fd5b50610271600480360381019061026c9190612a59565b6111b9565b60405161027e9190612f95565b60405180910390f35b34801561029357600080fd5b5061029c611528565b6040516102a99190613161565b60405180910390f35b3480156102be57600080fd5b506102d960048036038101906102d49190612a19565b6119f5565b005b3480156102e757600080fd5b5061030260048036038101906102fd9190612a59565b611b86565b60405161030f919061325d565b60405180910390f35b34801561032457600080fd5b5061032d611dad565b60405161033a91906126d9565b60405180910390f35b34801561034f57600080fd5b50610358611db3565b60405161036591906132a0565b60405180910390f35b34801561037a57600080fd5b50610395600480360381019061039091906132bb565b611dd9565b005b6103b160048036038101906103ac919061330e565b612173565b005b60035481565b6060600060035467ffffffffffffffff8111156103d9576103d8612cb3565b5b60405190808252806020026020018201604052801561041257816020015b6103ff6125ca565b8152602001906001900390816103f75790505b509050600080600190505b600354811161060057600160008281526020019081526020016000206040518061014001604052908160008201548152602001600182015481526020016002820160009054906101000a900473ffffffffffffffffffffffffffffffffffffffff1673ffffffffffffffffffffffffffffffffffffffff1673ffffffffffffffffffffffffffffffffffffffff16815260200160038201548152602001600482015481526020016005820160009054906101000a900460ff161515151581526020016005820160019054906101000a900460ff161515151581526020016005820160029054906101000a900460ff161515151581526020016005820160039054906101000a900460ff1615151515815260200160068201805461053f906133c0565b80601f016020809104026020016040519081016040528092919081815260200182805461056b906133c0565b80156105b85780601f1061058d576101008083540402835291602001916105b8565b820191906000526020600020905b81548152906001019060200180831161059b57829003601f168201915b5050505050815250508383815181106105d4576105d36133f1565b5b602002602001018190525081806105ea9061344f565b92505080806105f89061344f565b91505061041d565b50819250505090565b600080600084815260200190815260200160002090508173ffffffffffffffffffffffffffffffffffffffff168160050160009054906101000a900473ffffffffffffffffffffffffffffffffffffffff1673ffffffffffffffffffffffffffffffffffffffff16146106b1576040517f08c379a00000000000000000000000000000000000000000000000000000000081526004016106a890613509565b60405180910390fd5b8060050160149054906101000a900460ff1615610703576040517f08c379a00000000000000000000000000000000000000000000000000000000081526004016106fa90613575565b60405180910390fd5b60018160050160146101000a81548160ff0219169083151502179055508173ffffffffffffffffffffffffffffffffffffffff167f2791af6bd6d895b9bb9d148eac54029dad3f4675e951880dc571ce83d7d022278460405161076691906126d9565b60405180910390a2505050565b600060205280600052604060002060009150905080600001549080600101805461079c906133c0565b80601f01602080910402602001604051908101604052809291908181526020018280546107c8906133c0565b80156108155780601f106107ea57610100808354040283529160200191610815565b820191906000526020600020905b8154815290600101906020018083116107f857829003601f168201915b50505050509080600201805461082a906133c0565b80601f0160208091040260200160405190810160405280929190818152602001828054610856906133c0565b80156108a35780601f10610878576101008083540402835291602001916108a3565b820191906000526020600020905b81548152906001019060200180831161088657829003601f168201915b5050505050908060030180546108b8906133c0565b80601f01602080910402602001604051908101604052809291908181526020018280546108e4906133c0565b80156109315780601f1061090657610100808354040283529160200191610931565b820191906000526020600020905b81548152906001019060200180831161091457829003601f168201915b5050505050908060040154908060050160009054906101000a900473ffffffffffffffffffffffffffffffffffffffff16908060050160149054906101000a900460ff16908060050160159054906101000a900460ff16908060050160169054906101000a900460ff16908060060160009054906101000a900473ffffffffffffffffffffffffffffffffffffffff1690508a565b6000600160008681526020019081526020016000209050600081600001541180156109f75750600354816000015411155b610a36576040517f08c379a0000000000000000000000000000000000000000000000000000000008152600401610a2d906135e1565b60405180910390fd5b8373ffffffffffffffffffffffffffffffffffffffff168160020160009054906101000a900473ffffffffffffffffffffffffffffffffffffffff1673ffffffffffffffffffffffffffffffffffffffff1614610ac8576040517f08c379a0000000000000000000000000000000000000000000000000000000008152600401610abf90613673565b60405180910390fd5b8060050160019054906101000a900460ff1615610b1a576040517f08c379a0000000000000000000000000000000000000000000000000000000008152600401610b11906136df565b60405180910390fd5b60008060008360010154815260200190815260200160002090508473ffffffffffffffffffffffffffffffffffffffff168160060160009054906101000a900473ffffffffffffffffffffffffffffffffffffffff1673ffffffffffffffffffffffffffffffffffffffff1614610bc6576040517f08c379a0000000000000000000000000000000000000000000000000000000008152600401610bbd90613673565b60405180910390fd5b60018260050160016101000a81548160ff02191690831515021790555060018260050160026101000a81548160ff02191690831515021790555060018160050160166101000a81548160ff02191690831515021790555060008373ffffffffffffffffffffffffffffffffffffffff166108fc869081150290604051600060405180830381858888f19350505050905080610c96576040517f08c379a0000000000000000000000000000000000000000000000000000000008152600401610c8d9061374b565b60405180910390fd5b8573ffffffffffffffffffffffffffffffffffffffff167fbdb79f0b777669cf4d01754a6d6b461bdd8d0f18b57c036e7d4bf3a567f337848360000154604051610ce091906126d9565b60405180910390a27f952b264c8e0a06cddb4bbaa6d6af1d565145329fd95bbe72cb2b53942b2dc96687604051610d1791906126d9565b60405180910390a150505050505050565b60016020528060005260406000206000915090508060000154908060010154908060020160009054906101000a900473ffffffffffffffffffffffffffffffffffffffff16908060030154908060040154908060050160009054906101000a900460ff16908060050160019054906101000a900460ff16908060050160029054906101000a900460ff16908060050160039054906101000a900460ff1690806006018054610dd5906133c0565b80601f0160208091040260200160405190810160405280929190818152602001828054610e01906133c0565b8015610e4e5780601f10610e2357610100808354040283529160200191610e4e565b820191906000526020600020905b815481529060010190602001808311610e3157829003601f168201915b505050505090508a565b6000855111610e9c576040517f08c379a0000000000000000000000000000000000000000000000000000000008152600401610e93906137b7565b60405180910390fd5b6000845111610ee0576040517f08c379a0000000000000000000000000000000000000000000000000000000008152600401610ed790613823565b60405180910390fd5b6000835111610f24576040517f08c379a0000000000000000000000000000000000000000000000000000000008152600401610f1b9061388f565b60405180910390fd5b60008211610f67576040517f08c379a0000000000000000000000000000000000000000000000000000000008152600401610f5e906138fb565b60405180910390fd5b60026000815480929190610f7a9061344f565b919050555060405180610140016040528060025481526020018681526020018581526020018481526020018381526020018273ffffffffffffffffffffffffffffffffffffffff168152602001600015158152602001600015158152602001600015158152602001600073ffffffffffffffffffffffffffffffffffffffff1681525060008060025481526020019081526020016000206000820151816000015560208201518160010190816110309190613ac7565b5060408201518160020190816110469190613ac7565b50606082015181600301908161105c9190613ac7565b506080820151816004015560a08201518160050160006101000a81548173ffffffffffffffffffffffffffffffffffffffff021916908373ffffffffffffffffffffffffffffffffffffffff16021790555060c08201518160050160146101000a81548160ff02191690831515021790555060e08201518160050160156101000a81548160ff0219169083151502179055506101008201518160050160166101000a81548160ff0219169083151502179055506101208201518160060160006101000a81548173ffffffffffffffffffffffffffffffffffffffff021916908373ffffffffffffffffffffffffffffffffffffffff1602179055509050508073ffffffffffffffffffffffffffffffffffffffff167fee5451dfb711aa7973ca592e1f9fb5f457e40e47fa7dc59e57ff115ffde7db2f600254878787876040516111aa959493929190613b99565b60405180910390a25050505050565b6111c161263b565b6000806000848152602001908152602001600020600001541180156111fd57506002546000808481526020019081526020016000206000015411155b61123c576040517f08c379a000000000000000000000000000000000000000000000000000000000815260040161123390613c4d565b60405180910390fd5b6000808381526020019081526020016000206040518061014001604052908160008201548152602001600182018054611274906133c0565b80601f01602080910402602001604051908101604052809291908181526020018280546112a0906133c0565b80156112ed5780601f106112c2576101008083540402835291602001916112ed565b820191906000526020600020905b8154815290600101906020018083116112d057829003601f168201915b50505050508152602001600282018054611306906133c0565b80601f0160208091040260200160405190810160405280929190818152602001828054611332906133c0565b801561137f5780601f106113545761010080835404028352916020019161137f565b820191906000526020600020905b81548152906001019060200180831161136257829003601f168201915b50505050508152602001600382018054611398906133c0565b80601f01602080910402602001604051908101604052809291908181526020018280546113c4906133c0565b80156114115780601f106113e657610100808354040283529160200191611411565b820191906000526020600020905b8154815290600101906020018083116113f457829003601f168201915b50505050508152602001600482015481526020016005820160009054906101000a900473ffffffffffffffffffffffffffffffffffffffff1673ffffffffffffffffffffffffffffffffffffffff1673ffffffffffffffffffffffffffffffffffffffff1681526020016005820160149054906101000a900460ff161515151581526020016005820160159054906101000a900460ff161515151581526020016005820160169054906101000a900460ff161515151581526020016006820160009054906101000a900473ffffffffffffffffffffffffffffffffffffffff1673ffffffffffffffffffffffffffffffffffffffff1673ffffffffffffffffffffffffffffffffffffffff16815250509050919050565b6060600060025467ffffffffffffffff81111561154857611547612cb3565b5b60405190808252806020026020018201604052801561158157816020015b61156e61263b565b8152602001906001900390816115665790505b509050600080600190505b600254811161193b5760008082815260200190815260200160002060050160149054906101000a900460ff161580156115e5575060008082815260200190815260200160002060050160159054906101000a900460ff16155b8015611611575060008082815260200190815260200160002060050160169054906101000a900460ff16155b1561192857600080828152602001908152602001600020604051806101400160405290816000820154815260200160018201805461164e906133c0565b80601f016020809104026020016040519081016040528092919081815260200182805461167a906133c0565b80156116c75780601f1061169c576101008083540402835291602001916116c7565b820191906000526020600020905b8154815290600101906020018083116116aa57829003601f168201915b505050505081526020016002820180546116e0906133c0565b80601f016020809104026020016040519081016040528092919081815260200182805461170c906133c0565b80156117595780601f1061172e57610100808354040283529160200191611759565b820191906000526020600020905b81548152906001019060200180831161173c57829003601f168201915b50505050508152602001600382018054611772906133c0565b80601f016020809104026020016040519081016040528092919081815260200182805461179e906133c0565b80156117eb5780601f106117c0576101008083540402835291602001916117eb565b820191906000526020600020905b8154815290600101906020018083116117ce57829003601f168201915b50505050508152602001600482015481526020016005820160009054906101000a900473ffffffffffffffffffffffffffffffffffffffff1673ffffffffffffffffffffffffffffffffffffffff1673ffffffffffffffffffffffffffffffffffffffff1681526020016005820160149054906101000a900460ff161515151581526020016005820160159054906101000a900460ff161515151581526020016005820160169054906101000a900460ff161515151581526020016006820160009054906101000a900473ffffffffffffffffffffffffffffffffffffffff1673ffffffffffffffffffffffffffffffffffffffff1673ffffffffffffffffffffffffffffffffffffffff168152505083838151811061190e5761190d6133f1565b5b602002602001018190525081806119249061344f565b9250505b80806119339061344f565b91505061158c565b5060008167ffffffffffffffff81111561195857611957612cb3565b5b60405190808252806020026020018201604052801561199157816020015b61197e61263b565b8152602001906001900390816119765790505b50905060005b828110156119eb578381815181106119b2576119b16133f1565b5b60200260200101518282815181106119cd576119cc6133f1565b5b602002602001018190525080806119e39061344f565b915050611997565b5080935050505090565b6000600160008481526020019081526020016000209050600080600083600101548152602001908152602001600020905060008260000154118015611a405750600354826000015411155b611a7f576040517f08c379a0000000000000000000000000000000000000000000000000000000008152600401611a76906135e1565b60405180910390fd5b8273ffffffffffffffffffffffffffffffffffffffff168160050160009054906101000a900473ffffffffffffffffffffffffffffffffffffffff1673ffffffffffffffffffffffffffffffffffffffff1614611b11576040517f08c379a0000000000000000000000000000000000000000000000000000000008152600401611b0890613cdf565b60405180910390fd5b8160050160009054906101000a900460ff1615611b63576040517f08c379a0000000000000000000000000000000000000000000000000000000008152600401611b5a90613d4b565b60405180910390fd5b60018260050160006101000a81548160ff02191690831515021790555050505050565b611b8e6125ca565b60006001600084815260200190815260200160002060000154118015611bcc5750600354600160008481526020019081526020016000206000015411155b611c0b576040517f08c379a0000000000000000000000000000000000000000000000000000000008152600401611c02906135e1565b60405180910390fd5b600160008381526020019081526020016000206040518061014001604052908160008201548152602001600182015481526020016002820160009054906101000a900473ffffffffffffffffffffffffffffffffffffffff1673ffffffffffffffffffffffffffffffffffffffff1673ffffffffffffffffffffffffffffffffffffffff16815260200160038201548152602001600482015481526020016005820160009054906101000a900460ff161515151581526020016005820160019054906101000a900460ff161515151581526020016005820160029054906101000a900460ff161515151581526020016005820160039054906101000a900460ff16151515158152602001600682018054611d24906133c0565b80601f0160208091040260200160405190810160405280929190818152602001828054611d50906133c0565b8015611d9d5780601f10611d7257610100808354040283529160200191611d9d565b820191906000526020600020905b815481529060010190602001808311611d8057829003601f168201915b5050505050815250509050919050565b60025481565b600460009054906101000a900473ffffffffffffffffffffffffffffffffffffffff1681565b600060016000858152602001908152602001600020905060008160000154118015611e0a5750600354816000015411155b611e49576040517f08c379a0000000000000000000000000000000000000000000000000000000008152600401611e40906135e1565b60405180910390fd5b8273ffffffffffffffffffffffffffffffffffffffff168160020160009054906101000a900473ffffffffffffffffffffffffffffffffffffffff1673ffffffffffffffffffffffffffffffffffffffff1614611edb576040517f08c379a0000000000000000000000000000000000000000000000000000000008152600401611ed290613673565b60405180910390fd5b8060050160039054906101000a900460ff1615611f2d576040517f08c379a0000000000000000000000000000000000000000000000000000000008152600401611f2490613db7565b60405180910390fd5b60008060008360010154815260200190815260200160002090508373ffffffffffffffffffffffffffffffffffffffff168160060160009054906101000a900473ffffffffffffffffffffffffffffffffffffffff1673ffffffffffffffffffffffffffffffffffffffff1614611fd9576040517f08c379a0000000000000000000000000000000000000000000000000000000008152600401611fd090613673565b60405180910390fd5b8060050160159054906101000a900460ff1661202a576040517f08c379a000000000000000000000000000000000000000000000000000000000815260040161202190613e23565b60405180910390fd5b60008160050160156101000a81548160ff02191690831515021790555060008260050160006101000a81548160ff02191690831515021790555060008260050160016101000a81548160ff02191690831515021790555060018260050160036101000a81548160ff02191690831515021790555060008160050160166101000a81548160ff02191690831515021790555060008473ffffffffffffffffffffffffffffffffffffffff166108fc859081150290604051600060405180830381858888f19350505050905080612134576040517f08c379a000000000000000000000000000000000000000000000000000000000815260040161212b9061374b565b60405180910390fd5b7f278e51d3323fbf18b9fb8df3f8b97e31b145bc1146c52e764cf4aa1bfc4ba17d8660405161216391906126d9565b60405180910390a1505050505050565b60008060008681526020019081526020016000209050600081600001541180156121a35750600254816000015411155b6121e2576040517f08c379a00000000000000000000000000000000000000000000000000000000081526004016121d990613c4d565b60405180910390fd5b80600401548214612228576040517f08c379a000000000000000000000000000000000000000000000000000000000815260040161221f90613e8f565b60405180910390fd5b8060050160149054906101000a900460ff161561227a576040517f08c379a000000000000000000000000000000000000000000000000000000000815260040161227190613efb565b60405180910390fd5b8060050160159054906101000a900460ff16156122cc576040517f08c379a00000000000000000000000000000000000000000000000000000000081526004016122c390613f67565b60405180910390fd5b8060050160169054906101000a900460ff161561231e576040517f08c379a000000000000000000000000000000000000000000000000000000000815260040161231590613fd3565b60405180910390fd5b60018160050160156101000a81548160ff021916908315150217905550838160060160006101000a81548173ffffffffffffffffffffffffffffffffffffffff021916908373ffffffffffffffffffffffffffffffffffffffff160217905550600360008154809291906123919061344f565b919050555060405180610140016040528060035481526020018681526020018573ffffffffffffffffffffffffffffffffffffffff1681526020018260040154815260200142815260200160001515815260200160001515815260200160001515815260200160001515815260200184815250600160006003548152602001908152602001600020600082015181600001556020820151816001015560408201518160020160006101000a81548173ffffffffffffffffffffffffffffffffffffffff021916908373ffffffffffffffffffffffffffffffffffffffff160217905550606082015181600301556080820151816004015560a08201518160050160006101000a81548160ff02191690831515021790555060c08201518160050160016101000a81548160ff02191690831515021790555060e08201518160050160026101000a81548160ff0219169083151502179055506101008201518160050160036101000a81548160ff02191690831515021790555061012082015181600601908161251f9190613ac7565b509050508373ffffffffffffffffffffffffffffffffffffffff167f15a1424c21e7ec4c9bc2367a5eaebc4090be76668b29d1f91f3e23984a68070c8660405161256991906126d9565b60405180910390a28373ffffffffffffffffffffffffffffffffffffffff167f049ba4138a42e7ec9accc4e9139592fa0f1b7a9e4e1aefe2848fd13394dad8dc600354876040516125bb929190613ff3565b60405180910390a25050505050565b6040518061014001604052806000815260200160008152602001600073ffffffffffffffffffffffffffffffffffffffff1681526020016000815260200160008152602001600015158152602001600015158152602001600015158152602001600015158152602001606081525090565b6040518061014001604052806000815260200160608152602001606081526020016060815260200160008152602001600073ffffffffffffffffffffffffffffffffffffffff168152602001600015158152602001600015158152602001600015158152602001600073ffffffffffffffffffffffffffffffffffffffff1681525090565b6000819050919050565b6126d3816126c0565b82525050565b60006020820190506126ee60008301846126ca565b92915050565b600081519050919050565b600082825260208201905092915050565b6000819050602082019050919050565b612729816126c0565b82525050565b600073ffffffffffffffffffffffffffffffffffffffff82169050919050565b600061275a8261272f565b9050919050565b61276a8161274f565b82525050565b60008115159050919050565b61278581612770565b82525050565b600081519050919050565b600082825260208201905092915050565b60005b838110156127c55780820151818401526020810190506127aa565b60008484015250505050565b6000601f19601f8301169050919050565b60006127ed8261278b565b6127f78185612796565b93506128078185602086016127a7565b612810816127d1565b840191505092915050565b6000610140830160008301516128346000860182612720565b5060208301516128476020860182612720565b50604083015161285a6040860182612761565b50606083015161286d6060860182612720565b5060808301516128806080860182612720565b5060a083015161289360a086018261277c565b5060c08301516128a660c086018261277c565b5060e08301516128b960e086018261277c565b506101008301516128ce61010086018261277c565b506101208301518482036101208601526128e882826127e2565b9150508091505092915050565b6000612901838361281b565b905092915050565b6000602082019050919050565b6000612921826126f4565b61292b81856126ff565b93508360208202850161293d85612710565b8060005b85811015612979578484038952815161295a85826128f5565b945061296583612909565b925060208a01995050600181019050612941565b50829750879550505050505092915050565b600060208201905081810360008301526129a58184612916565b905092915050565b6000604051905090565b600080fd5b600080fd5b6129ca816126c0565b81146129d557600080fd5b50565b6000813590506129e7816129c1565b92915050565b6129f68161274f565b8114612a0157600080fd5b50565b600081359050612a13816129ed565b92915050565b60008060408385031215612a3057612a2f6129b7565b5b6000612a3e858286016129d8565b9250506020612a4f85828601612a04565b9150509250929050565b600060208284031215612a6f57612a6e6129b7565b5b6000612a7d848285016129d8565b91505092915050565b600082825260208201905092915050565b6000612aa28261278b565b612aac8185612a86565b9350612abc8185602086016127a7565b612ac5816127d1565b840191505092915050565b612ad98161274f565b82525050565b612ae881612770565b82525050565b600061014082019050612b04600083018d6126ca565b8181036020830152612b16818c612a97565b90508181036040830152612b2a818b612a97565b90508181036060830152612b3e818a612a97565b9050612b4d60808301896126ca565b612b5a60a0830188612ad0565b612b6760c0830187612adf565b612b7460e0830186612adf565b612b82610100830185612adf565b612b90610120830184612ad0565b9b9a5050505050505050505050565b60008060008060808587031215612bb957612bb86129b7565b5b6000612bc7878288016129d8565b9450506020612bd887828801612a04565b9350506040612be9878288016129d8565b9250506060612bfa87828801612a04565b91505092959194509250565b600061014082019050612c1c600083018d6126ca565b612c29602083018c6126ca565b612c36604083018b612ad0565b612c43606083018a6126ca565b612c5060808301896126ca565b612c5d60a0830188612adf565b612c6a60c0830187612adf565b612c7760e0830186612adf565b612c85610100830185612adf565b818103610120830152612c988184612a97565b90509b9a5050505050505050505050565b600080fd5b600080fd5b7f4e487b7100000000000000000000000000000000000000000000000000000000600052604160045260246000fd5b612ceb826127d1565b810181811067ffffffffffffffff82111715612d0a57612d09612cb3565b5b80604052505050565b6000612d1d6129ad565b9050612d298282612ce2565b919050565b600067ffffffffffffffff821115612d4957612d48612cb3565b5b612d52826127d1565b9050602081019050919050565b82818337600083830152505050565b6000612d81612d7c84612d2e565b612d13565b905082815260208101848484011115612d9d57612d9c612cae565b5b612da8848285612d5f565b509392505050565b600082601f830112612dc557612dc4612ca9565b5b8135612dd5848260208601612d6e565b91505092915050565b600080600080600060a08688031215612dfa57612df96129b7565b5b600086013567ffffffffffffffff811115612e1857612e176129bc565b5b612e2488828901612db0565b955050602086013567ffffffffffffffff811115612e4557612e446129bc565b5b612e5188828901612db0565b945050604086013567ffffffffffffffff811115612e7257612e716129bc565b5b612e7e88828901612db0565b9350506060612e8f888289016129d8565b9250506080612ea088828901612a04565b9150509295509295909350565b600061014083016000830151612ec66000860182612720565b5060208301518482036020860152612ede82826127e2565b91505060408301518482036040860152612ef882826127e2565b91505060608301518482036060860152612f1282826127e2565b9150506080830151612f276080860182612720565b5060a0830151612f3a60a0860182612761565b5060c0830151612f4d60c086018261277c565b5060e0830151612f6060e086018261277c565b50610100830151612f7561010086018261277c565b50610120830151612f8a610120860182612761565b508091505092915050565b60006020820190508181036000830152612faf8184612ead565b905092915050565b600081519050919050565b600082825260208201905092915050565b6000819050602082019050919050565b600061014083016000830151612ffc6000860182612720565b506020830151848203602086015261301482826127e2565b9150506040830151848203604086015261302e82826127e2565b9150506060830151848203606086015261304882826127e2565b915050608083015161305d6080860182612720565b5060a083015161307060a0860182612761565b5060c083015161308360c086018261277c565b5060e083015161309660e086018261277c565b506101008301516130ab61010086018261277c565b506101208301516130c0610120860182612761565b508091505092915050565b60006130d78383612fe3565b905092915050565b6000602082019050919050565b60006130f782612fb7565b6131018185612fc2565b93508360208202850161311385612fd3565b8060005b8581101561314f578484038952815161313085826130cb565b945061313b836130df565b925060208a01995050600181019050613117565b50829750879550505050505092915050565b6000602082019050818103600083015261317b81846130ec565b905092915050565b60006101408301600083015161319c6000860182612720565b5060208301516131af6020860182612720565b5060408301516131c26040860182612761565b5060608301516131d56060860182612720565b5060808301516131e86080860182612720565b5060a08301516131fb60a086018261277c565b5060c083015161320e60c086018261277c565b5060e083015161322160e086018261277c565b5061010083015161323661010086018261277c565b5061012083015184820361012086015261325082826127e2565b9150508091505092915050565b600060208201905081810360008301526132778184613183565b905092915050565b600061328a8261272f565b9050919050565b61329a8161327f565b82525050565b60006020820190506132b56000830184613291565b92915050565b6000806000606084860312156132d4576132d36129b7565b5b60006132e2868287016129d8565b93505060206132f386828701612a04565b9250506040613304868287016129d8565b9150509250925092565b60008060008060808587031215613328576133276129b7565b5b6000613336878288016129d8565b945050602061334787828801612a04565b935050604085013567ffffffffffffffff811115613368576133676129bc565b5b61337487828801612db0565b9250506060613385878288016129d8565b91505092959194509250565b7f4e487b7100000000000000000000000000000000000000000000000000000000600052602260045260246000fd5b600060028204905060018216806133d857607f821691505b6020821081036133eb576133ea613391565b5b50919050565b7f4e487b7100000000000000000000000000000000000000000000000000000000600052603260045260246000fd5b7f4e487b7100000000000000000000000000000000000000000000000000000000600052601160045260246000fd5b600061345a826126c0565b91507fffffffffffffffffffffffffffffffffffffffffffffffffffffffffffffffff820361348c5761348b613420565b5b600182019050919050565b7f4f6e6c79207468652073656c6c65722063616e2064656c65746520746865207060008201527f726f647563740000000000000000000000000000000000000000000000000000602082015250565b60006134f3602683612a86565b91506134fe82613497565b604082019050919050565b60006020820190508181036000830152613522816134e6565b9050919050565b7f50726f6475637420697320616c72656164792064656c65746564000000000000600082015250565b600061355f601a83612a86565b915061356a82613529565b602082019050919050565b6000602082019050818103600083015261358e81613552565b9050919050565b7f4f7264657220646f6573206e6f74206578697374000000000000000000000000600082015250565b60006135cb601483612a86565b91506135d682613595565b602082019050919050565b600060208201905081810360008301526135fa816135be565b9050919050565b7f50726f76696465642061646472657373206973206e6f7420746865206275796560008201527f7200000000000000000000000000000000000000000000000000000000000000602082015250565b600061365d602183612a86565b915061366882613601565b604082019050919050565b6000602082019050818103600083015261368c81613650565b9050919050565b7f46756e647320616c72656164792072656c656173656400000000000000000000600082015250565b60006136c9601683612a86565b91506136d482613693565b602082019050919050565b600060208201905081810360008301526136f8816136bc565b9050919050565b7f5472616e73666572206661696c65642e00000000000000000000000000000000600082015250565b6000613735601083612a86565b9150613740826136ff565b602082019050919050565b6000602082019050818103600083015261376481613728565b9050919050565b7f4e616d6520697320726571756972656400000000000000000000000000000000600082015250565b60006137a1601083612a86565b91506137ac8261376b565b602082019050919050565b600060208201905081810360008301526137d081613794565b9050919050565b7f50686f746f2055524c2069732072657175697265640000000000000000000000600082015250565b600061380d601583612a86565b9150613818826137d7565b602082019050919050565b6000602082019050818103600083015261383c81613800565b9050919050565b7f4465736372697074696f6e206973207265717569726564000000000000000000600082015250565b6000613879601783612a86565b915061388482613843565b602082019050919050565b600060208201905081810360008301526138a88161386c565b9050919050565b7f5072696365206d7573742062652067726561746572207468616e207a65726f00600082015250565b60006138e5601f83612a86565b91506138f0826138af565b602082019050919050565b60006020820190508181036000830152613914816138d8565b9050919050565b60008190508160005260206000209050919050565b60006020601f8301049050919050565b600082821b905092915050565b60006008830261397d7fffffffffffffffffffffffffffffffffffffffffffffffffffffffffffffffff82613940565b6139878683613940565b95508019841693508086168417925050509392505050565b6000819050919050565b60006139c46139bf6139ba846126c0565b61399f565b6126c0565b9050919050565b6000819050919050565b6139de836139a9565b6139f26139ea826139cb565b84845461394d565b825550505050565b600090565b613a076139fa565b613a128184846139d5565b505050565b5b81811015613a3657613a2b6000826139ff565b600181019050613a18565b5050565b601f821115613a7b57613a4c8161391b565b613a5584613930565b81016020851015613a64578190505b613a78613a7085613930565b830182613a17565b50505b505050565b600082821c905092915050565b6000613a9e60001984600802613a80565b1980831691505092915050565b6000613ab78383613a8d565b9150826002028217905092915050565b613ad08261278b565b67ffffffffffffffff811115613ae957613ae8612cb3565b5b613af382546133c0565b613afe828285613a3a565b600060209050601f831160018114613b315760008415613b1f578287015190505b613b298582613aab565b865550613b91565b601f198416613b3f8661391b565b60005b82811015613b6757848901518255600182019150602085019450602081019050613b42565b86831015613b845784890151613b80601f891682613a8d565b8355505b6001600288020188555050505b505050505050565b600060a082019050613bae60008301886126ca565b8181036020830152613bc08187612a97565b90508181036040830152613bd48186612a97565b90508181036060830152613be88185612a97565b9050613bf760808301846126ca565b9695505050505050565b7f50726f6475637420646f6573206e6f7420657869737400000000000000000000600082015250565b6000613c37601683612a86565b9150613c4282613c01565b602082019050919050565b60006020820190508181036000830152613c6681613c2a565b9050919050565b7f50726f76696465642061646472657373206973206e6f74207468652073656c6c60008201527f6572000000000000000000000000000000000000000000000000000000000000602082015250565b6000613cc9602283612a86565b9150613cd482613c6d565b604082019050919050565b60006020820190508181036000830152613cf881613cbc565b9050919050565b7f4f7264657220616c72656164792073656e740000000000000000000000000000600082015250565b6000613d35601283612a86565b9150613d4082613cff565b602082019050919050565b60006020820190508181036000830152613d6481613d28565b9050919050565b7f4f7264657220616c72656164792063616e63656c656400000000000000000000600082015250565b6000613da1601683612a86565b9150613dac82613d6b565b602082019050919050565b60006020820190508181036000830152613dd081613d94565b9050919050565b7f50726f64756374206973206e6f74207265736572766564000000000000000000600082015250565b6000613e0d601783612a86565b9150613e1882613dd7565b602082019050919050565b60006020820190508181036000830152613e3c81613e00565b9050919050565b7f496e636f72726563742076616c75652073656e74000000000000000000000000600082015250565b6000613e79601483612a86565b9150613e8482613e43565b602082019050919050565b60006020820190508181036000830152613ea881613e6c565b9050919050565b7f50726f647563742069732064656c657465640000000000000000000000000000600082015250565b6000613ee5601283612a86565b9150613ef082613eaf565b602082019050919050565b60006020820190508181036000830152613f1481613ed8565b9050919050565b7f50726f6475637420697320616c72656164792072657365727665640000000000600082015250565b6000613f51601b83612a86565b9150613f5c82613f1b565b602082019050919050565b60006020820190508181036000830152613f8081613f44565b9050919050565b7f50726f6475637420697320616c726561647920736f6c64000000000000000000600082015250565b6000613fbd601783612a86565b9150613fc882613f87565b602082019050919050565b60006020820190508181036000830152613fec81613fb0565b9050919050565b600060408201905061400860008301856126ca565b61401560208301846126ca565b939250505056fea2646970667358221220b9dd8c69cfe9c1a90b24b26bfd3a7717b61e6c905724bb0c966898a21d8853b864736f6c63430008130033",
  "immutableReferences": {},
  "source": "// SPDX-License-Identifier: UNLICENSED\npragma solidity ^0.8.0;\n\ncontract ProductRegistry {\n    struct Product {\n        uint256 id;\n        string name;\n        string photo;\n        string description;\n        uint256 price; // Price in Wei\n        address seller;\n        bool isDeleted;\n        bool isReserved; // track if the product is reserved\n        bool isSold;\n        address buyer;  // Track the buyer\n    }\n\n    struct Order {\n        uint256 id;\n        uint256 productId;\n        address buyer;\n        uint256 amount; // Use this for BigDecimal equivalent\n        uint256 timestamp;\n        bool isSend;\n        bool isReleased;\n        bool isPayed;\n        bool isCanceled; // track if the product is reserved\n        string shippingInfo;\n    }\n\n    mapping(uint256 => Product) public products;\n    mapping(uint256 => Order) public orders;\n    uint256 public productCount;\n    uint256 public orderCount;\n    address payable public escrow;\n\n    event ProductCreated(\n        uint256 id,\n        string name,\n        string photo,\n        string description,\n        uint256 price,\n        address indexed seller\n    );\n\n    event ProductDeleted(uint256 id, address indexed seller);\n    event ProductReserved(uint256 id, address indexed buyer);\n    event ProductSold(uint256 id, address indexed buyer);\n    event OrderCreated(uint256 id, uint256 productId, address indexed buyer);\n    event FundsReleased(uint256 orderId);\n    event FundsReturned(uint256 orderId);\n\n    constructor() payable {\n        escrow = payable(msg.sender);\n    }\n\n    function createProduct(\n        string memory _name,\n        string memory _photo,\n        string memory _description,\n        uint256 _price,\n        address _sellerAddress\n    ) public {\n        require(bytes(_name).length > 0, \"Name is required\");\n        require(bytes(_photo).length > 0, \"Photo URL is required\");\n        require(bytes(_description).length > 0, \"Description is required\");\n        require(_price > 0, \"Price must be greater than zero\");\n\n        productCount++;\n        products[productCount] = Product(\n            productCount,\n            _name,\n            _photo,\n            _description,\n            _price,\n            _sellerAddress,\n            false,\n            false,\n            false,\n            address(0) // Initialize buyer address to 0x0\n        );\n\n        emit ProductCreated(productCount, _name, _photo, _description, _price, _sellerAddress);\n    }\n\n    function deleteProduct(uint256 _id, address _sellerAddress) public {\n        Product storage product = products[_id];\n        require(product.seller == _sellerAddress, \"Only the seller can delete the product\");\n        require(!product.isDeleted, \"Product is already deleted\");\n\n        product.isDeleted = true;\n\n        emit ProductDeleted(_id, _sellerAddress);\n    }\n\n    function reserveProduct(uint256  _id, address _buyer, string memory _shippingInfo, uint256 _amountWei) public payable {\n        Product storage product = products[_id];\n        require(product.id > 0 && product.id <= productCount, \"Product does not exist\");\n        require(_amountWei == product.price, \"Incorrect value sent\");\n        require(!product.isDeleted, \"Product is deleted\");\n        require(!product.isReserved, \"Product is already reserved\");\n        require(!product.isSold, \"Product is already sold\");\n\n        product.isReserved = true;\n        product.buyer = _buyer;\n        orderCount++;\n        orders[orderCount] = Order(orderCount, _id, _buyer, product.price, block.timestamp, false, false, false, false, _shippingInfo);\n\n        emit ProductReserved(_id, _buyer);\n        emit OrderCreated(orderCount, _id, _buyer);\n    }\n\n    function confirmSend(uint256 _orderId, address _sellerAddress) public {\n        Order storage order = orders[_orderId];\n        Product storage product = products[order.productId];\n        require(order.id > 0 && order.id <= orderCount, \"Order does not exist\");\n        require(product.seller == _sellerAddress, \"Provided address is not the seller\");\n        require(!order.isSend, \"Order already sent\");\n\n        order.isSend = true;\n    }\n\n    function confirmReceived(uint256 _orderId, address _buyerAddress, uint _amountWei, address _sellerAddress) public {\n        Order storage order = orders[_orderId];\n        require(order.id > 0 && order.id <= orderCount, \"Order does not exist\");\n        require(order.buyer == _buyerAddress, \"Provided address is not the buyer\");\n        require(!order.isReleased, \"Funds already released\");\n\n        Product storage product = products[order.productId];\n        require(product.buyer == _buyerAddress, \"Provided address is not the buyer\");\n\n        order.isReleased = true;\n        order.isPayed = true;\n        product.isSold = true;\n\n        (bool success) = payable(_sellerAddress).send(_amountWei);\n        require(success, \"Transfer failed.\");\n\n        emit ProductSold(product.id, _buyerAddress);\n        emit FundsReleased(_orderId);\n    }\n\n    function cancelReservation(uint256 _orderId, address _buyerAddress, uint _amountWei) public {\n        Order storage order = orders[_orderId];\n        require(order.id > 0 && order.id <= orderCount, \"Order does not exist\");\n        require(order.buyer == _buyerAddress, \"Provided address is not the buyer\");\n        require(!order.isCanceled, \"Order already canceled\");\n\n        Product storage product = products[order.productId];\n        require(product.buyer == _buyerAddress, \"Provided address is not the buyer\");\n        require(product.isReserved, \"Product is not reserved\");\n\n        product.isReserved = false;\n        order.isSend = false;\n        order.isReleased = false;\n        order.isCanceled = true;\n        product.isSold = false;\n\n        (bool success) = payable(_buyerAddress).send(_amountWei);\n        require(success, \"Transfer failed.\");\n\n        emit FundsReturned(_orderId);\n    }\n\n    function getProduct(uint256 _id) public view returns (Product memory) {\n        require(products[_id].id > 0 && products[_id].id <= productCount, \"Product does not exist\");\n        return products[_id];\n    }\n\n    function getProducts() public view returns (Product[] memory) {\n        Product[] memory _products = new Product[](productCount);\n        uint currentIndex = 0;\n\n        for (uint i = 1; i <= productCount; i++) {\n            if (!products[i].isDeleted && !products[i].isReserved && !products[i].isSold) {\n                _products[currentIndex] = products[i];\n                currentIndex++;\n            }\n        }\n\n        Product[] memory filteredProducts = new Product[](currentIndex);\n        for (uint j = 0; j < currentIndex; j++) {\n            filteredProducts[j] = _products[j];\n        }\n\n        return filteredProducts;\n    }\n\n    function getOrder(uint256 _id) public view returns (Order memory) {\n        require(orders[_id].id > 0 && orders[_id].id <= orderCount, \"Order does not exist\");\n        return orders[_id];\n    }\n\n    function getOrders() public view returns (Order[] memory) {\n        Order[] memory _orders = new Order[](orderCount);\n        uint currentIndex = 0;\n\n        for (uint i = 1; i <= orderCount; i++) {\n            _orders[currentIndex] = orders[i];\n            currentIndex++;\n        }\n\n        return _orders;\n    }\n}",
  "sourcePath": "/home/dess/Downloads/blockchain-things/Web3App/backend/src/main/solidity/contracts/ProductRegistry.sol",
  "compiler": {
    "name": "solc",
    "version": "0.8.19+commit.7dd6d404.Emscripten.clang"
  },
  "schemaVersion": "3.4.16",
  "updatedAt": "2024-06-14T12:39:25.627Z",
  "networkType": "ethereum",
  "devdoc": {
    "kind": "dev",
    "methods": {},
    "version": 1
  },
  "userdoc": {
    "kind": "user",
    "methods": {},
    "version": 1
  }
}